:020000040800F2
:10000000C00800205120000885030008870300086D
:100010008B0300088F030008930300080000000012
:10002000000000000000000000000000970300082E
:1000300099030008000000009B0300089D030008CE
:100040006B2000086B2000086B2000086B20000864
:100050006B2000086B2000086B2000086B20000854
:100060006B2000086B2000086B2000086B20000844
:100070006B2000086B2000086B2000086B20000834
:100080006B2000086B2000086B2000086B20000824
:100090006B2000086B2000086B2000086B20000814
:1000A0006B2000086B2000086B2000086B20000804
:1000B0006B2000086B2000086B2000086B200008F4
:1000C0006B2000086B2000086B2000086B200008E4
:1000D0006B2000086B2000086D1F00086B200008D3
:1000E0006B2000086B2000086B2000086B200008C4
:1000F0006B2000086B2000086B2000086B200008B4
:100100006B2000086B2000086B2000086B200008A3
:100110006B2000086B2000086B2000086B20000893
:100120006B2000086B2000086B2000086B20000883
:100130006B2000086B2000086B2000086B20000873
:100140006B2000086B2000086B2000086B20000863
:100150006B2000086B2000086B2000086B20000853
:100160006B2000086B2000086B2000086B20000843
:100170006B2000086B2000086B2000086B20000833
:100180006B2000086B20000800F002F800F03CF83B
:100190000AA090E8000C82448344AAF10107DA45E2
:1001A00001D100F031F8AFF2090EBAE80F0013F0F8
:1001B000010F18BFFB1A43F0010318471C4E000043
:1001C0003C4E0000103A24BF78C878C1FAD85207D4
:1001D00024BF30C830C144BF04680C6070470000C1
:1001E0000023002400250026103A28BF78C1FBD840
:1001F000520728BF30C148BF0B6070471FB504F0DD
:1002000019FE1FBD10B510BD03F0ACF81146FFF785
:10021000F5FF00F009F803F0CAF803B4FFF7F2FFA6
:1002200003BC01F035FE00008AB04FF4A06001F07D
:100230002FFFA82001F0AAFD4FF4964001F036FEF2
:1002400000F088FC00F04AFE00F0FBFA00F0B0F984
:1002500001F01CF941F28831292001F0DBFB01F0AB
:10026000EEFC00BF00F07EFB0028FBD106208DF8DD
:10027000040001208DF8050032208DF8060033209F
:100280008DF8070034208DF8080035208DF809001E
:1002900036208DF80A0000F020FC01A800F0ABFB2E
:1002A000FF21E12000F082FB64E001F0E7FC01F0B7
:1002B000D5FA314880ED000A00F059FE13208DF880
:1002C00004002E4800788DF805002C4840788DF801
:1002D00006002A4880788DF807002848C0788DF8F5
:1002E0000800264800798DF80900244840798DF8E7
:1002F0000A002248007A8DF80B002048407A8DF8D9
:100300000C001E48807A8DF80D001C48C07A8DF8CC
:100310000E001A48007B8DF80F001848407B8DF8BE
:100320001000174840788DF81100154800788DF8B6
:1003300012001348C0788DF81300114880788DF8AA
:1003400014000F4840798DF815000D4800798DF89C
:100350001600094890ED000ABCEEC00A10EE100A23
:10036000C0B28DF8170001A800F045FBFF21E12085
:1003700000F01CFB99E70000000000209400002022
:1003800004000020704700BFFEE700BFFEE700BF8B
:10039000FEE700BFFEE770477047704770470000F8
:1003A0000CB50020019000907648006840F4803041
:1003B0007449086000BF7348006800F40030009082
:1003C0000198401C0190009818B90198B0F5A04F11
:1003D000F1D16C48006800F4003010B101200090A9
:1003E00001E0002000900098012846D16548403087
:1003F000006840F0805063494031086062480068FE
:1004000040F44040604908605E48083000685D493B
:10041000083108600846006840F40040086008465B
:10042000006840F4A05008605848091F0860081F81
:10043000006840F08070091F086000BF51480068E4
:1004400000F000700028F9D040F2057050490860B3
:100450004C480830006820F003004A490831086021
:100460000846006840F00200086000BF45480830B8
:10047000006800F00C000828F8D10CBD10B5454804
:10048000006840F47000434908603E48006840F04E
:1004900001003C49086000203A49083108603948A9
:1004A00000683D490840374908603C48091D08601C
:1004B000081F006820F48020091F086000203149CF
:1004C0000C310860FFF76CFF4FF000603149803954
:1004D000086010BD70B50020002202230024022114
:1004E000284D08352D6805F00C0020B1042806D0F1
:1004F000082834D107E02A4D2A4E356033E02A4DD2
:10050000284E35602FE01F4D2D1D2D68C5F38054FA
:100510001C4D2D1D2D6805F03F0154B1224DB5FB3A
:10052000F1F5184E361D3668C6F3881605FB06F23F
:1005300009E01B4DB5FBF1F5124E361D3668C6F3CA
:10054000881605FB06F20F4D2D1D2D68C5F30145DC
:100550006D1C6B00B2FBF3F5124E356003E0104DDD
:10056000104E356000BF00BF064D08352D68C5F33D
:1005700003150E4E705D0B4D2D68C540094E35605C
:1005800070BD000000380240007000400854400771
:10059000003C024088ED00E0FFFFF6FE1030002432
:1005A0000024F4000C00002000127A00100000204B
:1005B00000B587B00121080302F058F9012108466F
:1005C00002F0FAF805221146834801F0E2FE052206
:1005D0000621814801F0DDFE052207217E4801F059
:1005E000D8FEE020009002208DF8040000208DF855
:1005F000060001208DF8070002208DF805006946ED
:10060000754801F03BFE0020ADF808004FF4827001
:10061000ADF80A000020ADF80C00ADF80E00ADF802
:1006200010004FF40070ADF812002820ADF814004F
:100630000020ADF816000720ADF8180002A96748A1
:1006400002F05AFA0121654802F08EFB012163484D
:1006500002F04CFB07B000BD70B504460D46002605
:100660000CE03046711C8EB2B0F57A7F06D15C4842
:100670000068401C5A490860FF2070BD022157489D
:1006800002F0FEFB0028ECD000262146534802F081
:10069000AEFB0CE03046711C8EB2B0F57A7F06D10D
:1006A0004F480068401C4E490860FF20E5E70121E3
:1006B0004A4802F0E5FB0028ECD0484802F094FBE1
:1006C00028700020D9E710B5044600BF0221454834
:1006D00002F0D6FB0028F9D02146424802F087FB01
:1006E00000BF01213F4802F0CBFB0028F9D03D4874
:1006F00002F07AFBC0B210BD00B587B00121022024
:1007000002F05AF80121880302F09FF84FF460408C
:10071000059002208DF8180000208DF81A000320A3
:100720008DF8190001208DF81B0005A92E4801F055
:10073000A5FD05220D212C4801F02BFE05220E21DE
:10074000294801F026FE05220F21274801F021FE4D
:100750000121880302F0CEF800214FF4804002F01E
:10076000C9F80020ADF800004FF48270ADF8020027
:100770000020ADF804000220ADF806000120ADF81D
:1007800008004002ADF80A003820ADF80C00002047
:10079000ADF80E000720ADF810006946114802F0D0
:1007A000ABF901210F4802F0A1FAFF20FFF78BFF00
:1007B00007B000BD10B504460A4800884FF6C7715F
:1007C0000840084908800846008820430880012125
:1007D000044802F08BFA10BD0000024000300140D6
:1007E00020000020003800400004024000B585B021
:1007F0000021CD4802F07AFA0020ADF800004FF455
:100800008270ADF802000020ADF80400ADF80600DB
:10081000ADF808004FF40070ADF80A003820ADF8CC
:100820000C000020ADF80E000720ADF8100069465E
:10083000BD4802F061F90121BB4802F057FA05B04A
:1008400000BD1CB501210A2001F0B6FF4FF4805015
:10085000009001208DF8040000208DF80600032090
:100860008DF8050001208DF807006946AF4801F0BA
:1008700005FD0820009001208DF8040000208DF86F
:10088000060003208DF8050001208DF80700694659
:10089000A64801F0F3FC0420009001208DF804002C
:1008A00000208DF8060003208DF8050001208DF84A
:1008B000070069469E4801F0E1FC102000900020EE
:1008C0008DF8040001208DF807006946974801F073
:1008D000D5FC4FF48051954801F04CFDFFF70CFF1B
:1008E000FFF784FF00209349086001209249C1F876
:1008F00088021CBD2DE9F04107460D461646002032
:100900008E4908603846FFF7DEFE8046002405E089
:10091000FF20FFF7D8FE2855601CC4B2B442F7DBB5
:100920000120864908604046BDE8F0812DE9F0418C
:1009300007460C4615460020804908603846FFF7F8
:10094000C2FE8046002605E014F8010BFFF7BBFE4F
:10095000701CC6B2AE42F7DB012078490860404601
:10096000BDE8F0811CB576A103C9CDE900011020D6
:10097000FFF720FF052269463020FFF7D7FF052249
:1009800069461020FFF7B6FF002406E01DF80400BA
:10099000A52800D003E0601CC4B2052CF6DB00BF24
:1009A000052C01D001201CBD0020FCE770B50546D8
:1009B0000C460020614908602846FFF784FE064681
:1009C0002046FFF780FE01205B49C1F888023046CF
:1009D00070BD70B504460020584908602046FFF7F6
:1009E00072FEFF20FFF76FFE054601205249C1F855
:1009F0008802284670BD70B505461020FFF7DAFE64
:100A000000204C49086020222946A020FFF78EFFD5
:100A100001204D49C1F88C0200BF46487C3800686F
:100A20000028FAD10720FFF7D4FF044621462720EB
:100A3000FFF7BCFF04F0100028B1FF21E120FFF711
:100A4000B5FF102070BD04F0200008B12020F9E7A8
:100A5000FF20F7E770B504461020FFF7ABFE072034
:100A6000FFF7B7FF054629462720FFF79FFF05F050
:100A7000400050B1202221466120FFF73BFFFF21BB
:100A8000E220FFF793FF002070BD0120FCE710B5C6
:100A900000202849086005222C492A20FFF746FF3C
:100AA00001212120FFF782FF01212220FFF77EFF95
:100AB00000212520FFF77AFF20213120FFF776FF64
:100AC0000F212620FFF772FF0F212020FFF76EFF76
:100AD00001201D49C1F88C0210BD10B50020154938
:100AE000086005221A493020FFF720FF0522174928
:100AF0002A20FFF71BFF01212120FFF757FF0121CB
:100B00002220FFF753FF00212520FFF74FFF0F2181
:100B10002620FFF74BFF0E212020FFF747FF012083
:100B20000949C1F88C0210BD0038004000040240A1
:100B3000000C02408C824042008041428882414247
:100B4000A5A5A5A5A5000000008040423D4F0008D6
:100B5000384F00081CB50121022001F02DFE402075
:100B6000009001208DF8040000208DF8060003207D
:100B70008DF8050001208DF807006946C04801F096
:100B80007DFB802000906946BD4801F077FB012085
:100B9000BC490860BC49C1F89C021CBD10B5B848EE
:100BA000006820F44040B64908600846006840F4F8
:100BB000804008600120B349091D0860B249C1F8AE
:100BC0009802042001F0FCF80020AE49091D0860DD
:100BD000042001F0F5F80020AB49C1F8980210BDDF
:100BE00010B5A748006820F44040A54908600846B1
:100BF000006840F4804008600020A2490860A249D3
:100C0000C1F89C02042001F0DBF801209D49086036
:100C10009D49C1F89C02042001F0D2F810BD10B526
:100C200000249748006820F4404095490860084631
:100C30000068086001209349091D086001F0C0F8B0
:100C400001209149C1F8980201F0BAF807E0601C50
:100C5000C4B2FA2C03DDFFF7C3FF012010BD8948A1
:100C60007C3800680028F2D18649086000BFF5E7AB
:100C700010B50020834908608148006820F4404096
:100C80007F4908600846006840F480400860002002
:100C90007D49C1F89C02022001F092F801207949B7
:100CA0000860022001F08CF800207749C1F8980212
:100CB00010BD10B50020734908607148006820F429
:100CC00040406F4908600846006840F48040086072
:100CD00001206D49C1F89C02022001F071F8012049
:100CE00068490860022001F06BF800206649C1F8ED
:100CF000980210BD70B504466148006820F4404079
:100D00005F4908600846006840F4804008600020A1
:100D10005C490860002517E0E0095A49091D086090
:100D20006006040E022001F04BF801205649C1F87C
:100D30009802022001F044F8002052490860022085
:100D400001F03EF8681CC5B2082DE5DB70BD70B53A
:100D5000054600244A48006820F44040484908609D
:100D6000084600680860002616E000204549086033
:100D7000022001F025F801204349C1F898026006DD
:100D8000040E40487C38006808B1601CC4B20120E1
:100D900001F016F8701CC6B2082EE6DB15B9FFF795
:100DA00088FF01E0FFF764FF204670BD70B5044680
:100DB0000D461646FFF7F2FE002141EA4401C8B293
:100DC000FFF798FFFFF72BFF2846FFF793FFFFF78A
:100DD00026FF3046FFF78EFFFFF721FFFFF700FFEA
:100DE0000A2001F035F870BD2DE9F0470546884628
:100DF00016469946FFF7D2FE002141EA4501C8B2E6
:100E0000FFF778FFFFF70BFF074637B11F48006871
:100E1000401C1E490860BDE8F0874046FFF76AFFA6
:100E2000FFF7FDFE07462FB118480068401C174920
:100E30000860F0E7FFF7B2FE012101EB4501C8B2FF
:100E4000FFF758FFFFF7EBFE07462FB10F4800688A
:100E5000401C0E490860DEE7002405E00120FFF792
:100E600076FF3055601CC4B2A9F10100A042F5DC48
:100E70000020FFF76CFF3055FFF7B2FE00BFCAE756
:100E8000000402409882404200804042240000203A
:100E9000002020E00021E44A02EB001251809FED87
:100EA000E30AE14901EB001181ED020A0021DE4A6B
:100EB00002EB001291800521DB4A02EB0012118047
:100EC00000EB8001DA4A02EB8101D74A02EB001203
:100ED000D160411CC8B20328DCDB704710B5012388
:100EE000D44A75216820FFF77FFF08E0642000F0F6
:100EF000AFFF0123CF4A75216820FFF775FFCD486A
:100F000000786828F2D100226B21FFF74FFF0722FB
:100F100019216820FFF74AFF06221A216820FFF7EF
:100F200045FF18221B216820FFF740FF18221C21D3
:100F30006820FFF73BFFFFF7ABFF4FF4B070BE49EF
:100F400008800D2048804FF0FF30888010BDBB48DE
:100F5000C088B9490880B94800894880B7484089A5
:100F600088800020B549C88008814881704710B545
:100F70002DED048B0E23B24A3B216820FFF734FF8E
:100F8000AF484078AE49097840EA012000B2AD4947
:100F90000880AB48C078AA49897840EA012000B2AD
:100FA000A8494880A6484079A549097940EA012026
:100FB00000B2A4498880A248407AA149097A40EA4F
:100FC00001209D490988401A00B29E49C8809C486A
:100FD000C07A9B49897A40EA012097494988401A9A
:100FE00000B2984908819648407B9549097B40EAC0
:100FF000012091498988401A00B2924948810846E7
:10100000B0F9000000EE900AF8EEE00AB0EE600AD7
:10101000854800F027F9BDEEC00A10EE100A00B2B4
:10102000864908808748B0F9020000EE900AF8EE81
:10103000E00AB0EE600A7C48103000F013F9BDEE13
:10104000C00A10EE100A00B27C4948807D48B0F911
:10105000040000EE900AF8EEE00AB0EE600A724872
:10106000203000F0FFF8BDEEC00A10EE100A00B20A
:10107000724988807348B0F9060000EE100AB8EE95
:10108000C00A7148D0ED000AB7EE001A71EE600A8E
:1010900020EE200A0846B0F9060000EE900AF8EEAD
:1010A000E00A694890ED001A00EE810ABDEEC00A20
:1010B00010EE100A00B2C8806248B0F9080000EED5
:1010C000100AB8EEC00A6048D0ED000AB7EE001A68
:1010D00071EE600A20EE200A0846B0F9080000EE22
:1010E000900AF8EEE00A584890ED001A00EE810AE6
:1010F000BDEEC00A10EE100A00B208815148B0F9E6
:101100000A0000EE100AB8EEC00A4F48D0ED000AFF
:10111000B7EE001A71EE600A20EE200A0846B0F918
:101120000A0000EE900AF8EEE00A474890ED001A37
:1011300000EE810ABDEEC00A10EE100A00B248812E
:10114000B1F9060003F0DAFA41EC190B9FED3F0B01
:1011500053EC102B03F078FB41EC180B03F088F8EC
:101160003C4908603549B1F9080003F0C7FA41EC81
:10117000190B9FED360B53EC102B03F065FB41EC84
:10118000180B03F075F8334948602C49B1F90A008F
:1011900003F0B4FA41EC190B9FED2C0B53EC102B20
:1011A00003F052FB41EC180B03F062F82949886008
:1011B0002249B1F9000003F0A1FA41EC190B9FEDAF
:1011C000260B53EC102B03F03FFB41EC180B03F004
:1011D0004FF8234908601949B1F9020003F08EFA6B
:1011E00041EC190B9FED1C0B53EC102B03F02CFB67
:1011F00041EC180B03F03CF8194948600F49B1F96C
:10120000040003F07BFA41EC190B9FED130B53EC38
:10121000102B03F019FB41EC180B03F029F81049CF
:101220008860BDEC048B10BDD400002000000000DD
:10123000040100202C0000202E000020C800002007
:1012400094000020BC000020280000202877442AB9
:101250003174513FB0000020A8AC01A5FCFF733FE2
:10126000A4000020F0EE400AB0F9021090ED021A3E
:1012700031EE201A80ED021A8288521C12B282804E
:10128000B0F90420B0F900309A420CDD0288828067
:10129000C26802EB810292ED001AD0ED021A31EE23
:1012A000C11A80ED021AC26802EB8102C2ED000A87
:1012B0004288521C12B24280B0F90220B0F90030CC
:1012C0009A4201D100224280D0ED021AB0F90420E6
:1012D00001EE102AB8EEC11A81EE810A70470000B3
:1012E00010B50121FE4801F045F810BD10B50121EF
:1012F000FB4801F041F810BD1CB50121042001F0AC
:101300005BFA012000908DF8040000208DF80600A3
:1013100001208DF8070003208DF805006946F0488C
:1013200000F0ACFF012000F093FDFFF7D9FF1CBDDA
:10133000FEB506460D460020029001900090002464
:10134000FFF7D4FF69463046FFF786F90446FF2CC5
:1013500003D1FFF7C5FFFF20FEBD02A9FF20FFF765
:101360007BF90446FF2C03D1FFF7BAFFFF20F3E718
:1013700001A9FF20FFF770F90446FF2C03D1FFF706
:10138000AFFFFF20E8E79DF804009DF8081040EA51
:1013900001202880FFF7A4FF0020DDE770B501469B
:1013A0000023887B00F00F040126C88900F47F40E9
:1013B000C88100221DE0501031F8100000B1002655
:1013C00002F0010020B1501011F81000434004E079
:1013D000501031F8100083EA2023082506E003F4BA
:1013E000004008B183F4C0535B006D1E002DF6DC95
:1013F000521C102ADFDBC8892043C8812EB9C3F3F1
:101400000330844201D1002070BD4FF0FF30FBE774
:1014100038B5002000900024FFF768FF0DE014208D
:1014200000F0CEFC2046611CCCB20A2805D1FFF7A3
:1014300057FF0020AB49087038BD69464820FFF7C8
:101440000BF90028EBD1FFF74BFF00BFF4E738B5ED
:10145000002000900024FFF749FF0DE0142000F069
:10146000AFFC2046611CCCB20A2805D1FFF738FF3B
:1014700000209C49087038BD69465820FFF7ECF8F9
:101480000028EBD1FFF72CFF00BFF4E738B50020B0
:1014900000900024FFF730FFFFF728FF69461E2069
:1014A000FFF7DAF8FFF71CFF0A2000F0D1FC00205C
:1014B000009018E08C4A9DF8003002EB43015A007E
:1014C000A032D0B2FFF734FF0446FF2C03D1002036
:1014D0008449087038BD0A2000F0BAFC9DF800006D
:1014E000401CC0B200909DF800000828E2DB7E4856
:1014F000FFF754FF18B100207A490870EAE7FFF7B8
:10150000A6FF0A2000F0A4FC0A20784908800020E9
:10151000488088809FED760A084680ED020A75486B
:10152000C86000BFD6E73EB50446FFF7DFFE02A95C
:101530000020FFF791F810B1FFF7D2FE3EBD02A9DF
:10154000FF20FFF789F810B1FFF7CAFEF6E701A9FF
:10155000FF20FFF781F810B1FFF7C2FEEEE7694602
:10156000FF20FFF779F810B1FFF7BAFEE6E7322067
:1015700000F026FCFFF7B4FE9DF8080000049DF87B
:10158000041040EA01209DF800100843206000BFCD
:10159000D4E72DE9F0472DED0A8B8AB000BF00BFDC
:1015A000514841890020000240EA11600B02524973
:1015B00009680022CE1A62EB00074B48808900219F
:1015C000A0FB062301FB063100FB0711D00D40EA0A
:1015D00041204FEAE15C4FF4FA63C4184CF1000576
:1015E000414881880020000440EA11400A043E4935
:1015F00009890023A1FB06CA03FB06A301FB0733ED
:101600004FEADC1141EA4361511840EBE312CDE9A6
:101610000612354841884FF000004FEAC03040EADA
:1016200051404FEAC1323049C9884FF00003A1FB55
:1016300006CA03FB06A301FB07334FEA1C2141EA5C
:101640000361511840EB2322CDE904124FF4FA61F3
:10165000611A75F100007CDAA6FB060107FB061192
:1016600006FB0711C00F40EA410000904FF4FA61F9
:10167000611A65F1000C05220023A1FB020A0CFB94
:1016800002A201FB03214FF4FA63E31A65F10002A1
:101690008446ACFB030A01FB03A10CFB02115FEAC9
:1016A00061094FEA30084FF4FA61621A65F10001EE
:1016B0004FF0050C0023A2FB0C0A01FB0CA102FB5E
:1016C00003114FF4FA63E31A65F100028446ACFBA0
:1016D000030A01FB03A10CFB021180080EE00000CD
:1016E0000008024045000020400100207801002051
:1016F00000000000500100203800002040EA817006
:101700008910CDE90201AB49611A75F1FF303FDA6A
:1017100040F2DC51611845F1000C07230022A1FBC7
:10172000030A0CFB03A301FB023140F2DC53E31874
:101730006A418446ACFB030A01FB03A10CFB0211C6
:10174000024612EB080841EB090940F2DC5162182D
:1017500000E030E045F1000C0B230021A2FB030A5E
:101760000CFB03A302FB013140F2DC53E31845F10B
:101770000002A0FB03CA01FB03A100FB0210421000
:101780004FEA3C03DDE9020118184A41CDE90202A3
:101790000098201ADDE90610B1EB080160EB0902A0
:1017A000CDE90612DDE90232DDE90401C01A61EB80
:1017B0000201CDE90401804800680023DDE904123C
:1017C000A0FB01CA03FB01A100FB02114FEA5C5020
:1017D00040EAC12C4815DDE90612BCEB010160EBC3
:1017E0000202C80B40EA4240D113CDE90801DDE90D
:1017F000080102F09BFF9FED710B53EC102B02F0E0
:1018000025FE41EC190B9FED6F1BB0EE490AF0EE7F
:10181000690A01F0F1FDB0EE409AF0EE609A53ECE7
:10182000192B9FED6A0B51EC100B03F019FA9FED89
:10183000690B53EC102B03F007F89FED680B53EC8A
:10184000102B03F001F802F013FD08EE100AB0EEC1
:10185000480A0AB0BDEC0A8BBDE8F08708B5002045
:1018600000906A465F49604800F0D6F85F4800681B
:10187000009908445D4908605D48007840B1002047
:101880005B490870594908605A4890ED000A08BD44
:101890005648006842F25031884203D2564890EDD3
:1018A000000AF4E755480078012815D15448FFF79D
:1018B0003AFE52480078401C50490870FFF7A8FDD6
:1018C0004A4890ED000AB8EE400A4E4880ED000A02
:1018D00000204649086059E048480078052828D18A
:1018E0003548FFF720FEFFF754FE434880ED000A1D
:1018F000006801F07AFD28B1434890ED000A3E48A7
:1019000080ED000A3C4890ED000A3F4880ED000A57
:1019100001203A490870FFF79AFD344890ED000A1B
:10192000B8EE400A374880ED000A00202F490860D1
:1019300029E02148FFF7F7FDFFF72BFE2E4880ED49
:10194000000A006801F051FD28B12F4890ED000A0F
:10195000294880ED000A284890ED000A2A4880EDC9
:10196000000A26480078401C24490870FFF750FD03
:101970001E4890ED000AB8EE400A224880ED000AA9
:1019800000201A4908600120204908701A4890ED8B
:10199000000A7CE710B52DED028BB0EE408AB0EE68
:1019A000480A1B48FFF75EFC124880ED000ABDECB8
:1019B000028B10BD24FAFFFF34000020000000005D
:1019C000D0BCF84072D6423C3DF1283F00000000F8
:1019D0000000F03F0000000040A5E54000000000CE
:1019E00000408F405C000020580000206400002070
:1019F00060000020400000204C0000205400002027
:101A00003800002048000020500000204600002040
:101A1000780100207047704710B50346FFF7FBFFC1
:101A2000186018680C68A04206D818680C68C4F1E1
:101A3000FF342044106003E018680C68001B10603D
:101A40001868086010BD10B50346FFF7E4FF186082
:101A500018680C68A0420FD818680C68C4F1FF34ED
:101A6000204400EE100AB8EE400ADFED410A80EE95
:101A7000201A82ED001A0CE018680C68001B00EEBA
:101A8000100AB8EE400ADFED3A0A80EE201A82ED25
:101A9000001A1868086010BD10B50346FFF7BBFFB9
:101AA000186018680C68A0420FD818680C68C4F158
:101AB000FF34204400EE100AB8EE400ADFED2D0A94
:101AC00080EE201A82ED001A0CE018680C68001BEA
:101AD00000EE100AB8EE400ADFED260A80EE201A6A
:101AE00082ED001A1868086010BD884204D8C1F160
:101AF000FF330344136001E0431A136070478842C8
:101B00000DD8C1F1FF33034400EE103AB8EE400A9D
:101B1000DFED170A80EE201A82ED001A0AE0431A60
:101B200000EE103AB8EE400ADFED110A80EE201AFE
:101B300082ED001A704788420DD8C1F1FF3303448B
:101B400000EE103AB8EE400ADFED0A0A80EE201AE5
:101B500082ED001A0AE0431A00EE103AB8EE400A8D
:101B6000DFED040A80EE201A82ED001A70470000B3
:101B700000007A440024744910B54FF480617B481A
:101B800000F0F8FB10BD10B54FF48061774800F00D
:101B9000F3FB10BD1CB50121062000F00DFE012055
:101BA00000908DF804008DF8070003208DF80500E3
:101BB00069466F4800F062FB01216D4800F0DAFBD6
:101BC0004FF4806000906946684800F057FB01219F
:101BD000674800F0CFFB4FF48061644800F0CAFB17
:101BE0001CBD38B505460C4600200090FFF7CBFF22
:101BF00069462846FEF730FD69462046FEF72CFD73
:101C0000FFF7BAFF38BDF8B505460E461746002067
:101C10000090FFF7B8FF46F080010E46084669467F
:101C2000FEF71AFD002405E02919FF20FEF714FD38
:101C3000601CC4B2BC42F7DBFFF79EFFF8BD08B5DD
:101C400000200090FFF7A6FF0A2000F001F9012212
:101C500000216846FFF7D7FF07E0FA2000F0F8F808
:101C6000012200216846FFF7CEFF9DF800004828BA
:101C7000F3D101210A20FFF7B4FF08BD08B5002009
:101C80000090012202216846FFF7BDFF9DF8000089
:101C900000B908BD062203213648FFF7B4FF012131
:101CA0000A20FFF79EFF334800783249497840EA1E
:101CB000012031490988401A00B2304908802D4876
:101CC00080782C49C97840EA01202D490988401ABA
:101CD00000B22A494880274800792649497940EAD4
:101CE000012028490988401A00B2244988802648E2
:101CF00090ED000AF6EE000A20EE200A0846B0F940
:101D0000000000EE900AF8EEE00AB6EE001A01EECE
:101D1000200A1D4880ED000A90ED010AF6EE000A47
:101D200020EE200A0846B0F9020000EE900AF8EE14
:101D3000E00AB6EE001A01EE200A134880ED010A0F
:101D400090ED020AF6EE000A20EE200A0846B0F9ED
:101D5000040000EE900AF8EEE00AB6EE001A01EE7A
:101D6000200A094880ED020A00BF92E70004024001
:101D700000080240040000206E00002068000020DF
:101D800070000020720000208801002010B5044679
:101D90006FF0040000F0CEF9E11704EB5171C1F3CC
:101DA000C701394A11701046007800EB4001C1EBC1
:101DB000C0104FF6FF7101EAC0003449088010BD21
:101DC0000146314A12784A434FF0E0235A6100221B
:101DD0009A611A46126942F001021A6100BF4FF07F
:101DE000E022106900F001021AB100F48032002AEA
:101DF000F5D04FF0E022126922F001024FF0E0230B
:101E00001A6100229A6170470146204A12884A43AB
:101E10004FF0E0235A6100229A611A46126942F09B
:101E200001021A6100BF4FF0E022106900F00102C8
:101E30001AB100F48032002AF5D04FF0E022126986
:101E400022F001024FF0E0231A6100229A617047EC
:101E500070B504464FF4077094FBF0F0C6B24FF42F
:101E6000077094FBF0F100FB114085B205E04FF4E0
:101E70000770FFF7C9FF701EC6B2002EF7D115B16B
:101E80002846FFF7C1FF70BD7400002076000020D7
:101E900000BF704700BF6A4A128802F04002002A61
:101EA000F9D0C2B2664B1B1D1A80704710B588B0BE
:101EB00004460121084600F07FFC0121480400F09F
:101EC000C4FC072202215F4800F063FA07220321C5
:101ED0005C4800F05EFA0420069002208DF81C0099
:101EE0008DF81D0000208DF81E0001208DF81F00C8
:101EF00006A9544800F0C2F90820069002208DF887
:101F00001C0001208DF81E0000208DF81F0006A97E
:101F10004C4800F0B3F926208DF8040003208DF81A
:101F200005008DF8060001208DF8070001A800F0DB
:101F3000B4F802940020ADF80C00ADF80E00ADF836
:101F40001000ADF814000C20ADF8120002A93C48B6
:101F500001F02DF8012240F22551394801F065F9D0
:101F60000121374801F0ABF808B010BD10B540F2C0
:101F70002551334801F094F900285FD0304801F032
:101F8000CDF8C4B2FE2C0AD12F48008838B92E48AB
:101F900001880088401C2C4A10802C484454042C92
:101FA0000BD129480088012807D1274801880088DB
:101FB000401C254A108025484454234800880228A4
:101FC0000BDB21480088092807DC1F4801880088AE
:101FD000401C1D4A10801D4844541B48008800F4D2
:101FE000004058BB1848008800F4804060B10A2CBB
:101FF00003D000201449088020E01348008840F4F2
:1020000000401149088019E00D2C06D10E480088C7
:1020100040F480400C49088010E00B480088C0F371
:102020000D000A490C5408480088401C06490880E5
:1020300008460088C72801DD0020088010BD000088
:102040000044004000000240800000209401002075
:102050000948804709480047FEE7FEE7FEE7FEE73C
:10206000FEE7FEE7FEE7FEE7FEE7FEE70448054978
:10207000054A064B704700007D04000889010008EE
:10208000C0020020C0080020C0040020C0040020BE
:1020900032490143324A1160704770B50021002374
:1020A0000F22C4781CB32E4C246804F4E064C4F5F9
:1020B000E064C4F30721C1F10404E3B20A414478A7
:1020C0009C40E1B28478144021430C07210E254C3A
:1020D00005786155047804F01F050124AC400578AB
:1020E0006D11AD0005F1E025C5F8004109E0047867
:1020F00004F01F050124AC401B4D0678761145F80D
:10210000264070BD194A0A400243154B1B1F1A6036
:10211000704739B1124A121D12680243104B1B1D41
:102120001A6006E00E4A121D126882430C4B1B1DFA
:102130001A607047042808D14FF0E021096941F086
:1021400004014FF0E022116107E04FF0E02109693E
:1021500021F004014FF0E022116170470000FA0500
:102160000CED00E000E400E080E100E080FFFF1FF4
:1021700010B504469848844208D10121084600F071
:1021800086FB0021012000F082FB76E09348844228
:1021900008D10121022000F07AFB0021022000F08A
:1021A00076FB6AE08E48844208D10121042000F0C9
:1021B0006EFB0021042000F06AFB5EE08948844247
:1021C00008D10121082000F062FB0021082000F066
:1021D0005EFB52E08448844208D10121102000F0C7
:1021E00056FB0021102000F052FB46E07F4884425D
:1021F00008D10121202000F04AFB0021202000F01E
:1022000046FB3AE07A48844208D10121402000F0A0
:102210003EFB0021402000F03AFB2EE0754884424E
:1022200008D10121802000F032FB0021802000F045
:102230002EFB22E07048844208D10121801500F075
:1022400026FB0021A01500F022FB16E06B4884421B
:1022500008D10121401500F01AFB0021601500F0A3
:1022600016FB0AE06648844207D10121001500F000
:102270000EFB0021201500F00AFB10BDF0B50A4648
:1022800000210023002400BF3DE0012505FA01F3F1
:10229000156805EA03049C4234D105684F00032603
:1022A000BE40B543056015794E00B540066835431C
:1022B00005601579012D02D01579022D16D185689A
:1022C0004F000326BE40B543856055794E00B540AA
:1022D000866835438560456801268E40B543456074
:1022E000456896798E40B6B235434560C5684F0063
:1022F0000326BE40B543C560D5794E00B540C668DB
:102300003543C560491C1029BFD3F0BD4FF6FF719E
:1023100001600021017141718171C171704708B57F
:102320004FF480320092009A0A430092009AC261F0
:10233000C161009AC261C2690092C269009208BD7F
:102340000246002013690B400BB1012000E0002081
:1023500070470146086980B2704702460020536901
:102360000B400BB1012000E0002070470146486996
:1023700080B2704701837047418370470AB101837F
:1023800000E0418370474161704742694A404261C1
:102390007047F0B5002300244D07ED0E02FA05F357
:1023A000CE1000F1200555F826504E07F70E0F26E7
:1023B000BE40B543CF1000F1200646F82750CE109E
:1023C00000F1200555F8265045EA0304CE1000F12F
:1023D000200545F82640F0BD000002400004024000
:1023E00000080240000C02400010024000140240AD
:1023F00000180240001C024000200240002402405D
:1024000000280240F948006840F00100F7490860E0
:102410000020F64908310860F4480068F449084093
:10242000F2490860F348091D0860F348EF49843118
:102430000860F0481038091D0860EC48006820F476
:102440008020EA4908600020E8490C310860E7492B
:102450008C31086070470021E44A921C11701146CB
:102460000870704710B501460022002300204A1171
:10247000012A02D1DD4C236808E0022A03D1DB4C9B
:102480007034236802E0D94C7434236801F01F02D1
:10249000012494401C400CB1012000E0002010BD3C
:1024A00038B5002000900024002500BF3120FFF740
:1024B000D9FF05460098401C00900098B0F5A04F49
:1024C00001D0002DF2D03120FFF7CCFF08B101245C
:1024D00000E00024204638BD01460020C34A1068B1
:1024E00020F0F80040EAC10010607047C34908605E
:1024F00070470021BD4A703211701170012802D05E
:1025000004280AD104E00121B84A7032117005E0B4
:102510000521B64A7032117000E000BF00BF70475D
:10252000B7490860704770B5049C41EA82150126DE
:10253000C6EB530645EA0645054345EA0465AB4E3E
:10254000361D356070BDAD4908667047820142EAAC
:102550000172A64B84331A607047A8498866704799
:1025600010B5830143EA016343EA02739F4C883448
:10257000236010BDA14908677047A049C86470472F
:1025800002460020994B0833186820F0EC6042EABC
:1025900001031843954B083318607047024600202A
:1025A000924B0833186820F0784042EA0103184340
:1025B0008E4B083318607047014600208B4A083262
:1025C000106820F003000843106070478748083007
:1025D000006800F00C00704701460020834A083272
:1025E000106820F0F000084310607047014600209A
:1025F0007E4A0832106820F4E050084310607047AB
:1026000001460020794A0832106820F4604040EA10
:10261000C10010607047F0B500210022002402259F
:1026200000260223714F08373F6807F00C0121B1E3
:10263000042905D0082937D105E0724F076036E03C
:10264000714F076033E0694F3F1D3F68C7F3805605
:10265000664F3F1D3F6807F03F036EB16A4FB7FBFF
:10266000F3F7DFF888C10CF1040CDCF800C0CCF300
:10267000881C07FB0CF40CE0624FB7FBF3F7DFF8A4
:102680006CC10CF1040CDCF800C0CCF3881C07FB17
:102690000CF4564F3F1D3F68C7F301477F1C7D0078
:1026A000B4FBF5F7076002E0564F076000BF00BFBC
:1026B0004E4F08373F6807F0F0010909534F7A5C25
:1026C0000768D7404760494F08373F6807F4E05133
:1026D000890A4E4F7A5C4768D7408760434F083776
:1026E0003F6807F46041490B484F7A5C4768D74020
:1026F000C760F0BD002100F44072B2F5407F0AD1FE
:102700003A4A0832116821F4F811414A0240114353
:10271000364A08321160354A70321268C0F30B0332
:102720001A43324B70331A60704735494439086098
:102730007047334940390860704736490860704730
:1027400001460020294A8C32106820F01F004A1EE2
:102750001043264A8C321060704701460020234AFD
:102760008C32106820F4F8504A1E40EA02201F4ABA
:102770008C3210607047014600201C4A8C32106871
:1027800020F4401008431060704701460020174AAB
:102790008C32106820F440000843106070470146F6
:1027A0000020124A8C32106820F440300843106038
:1027B000704719490860704739B10C4A30321268C5
:1027C00002430A4B30331A6006E0084A303212687E
:1027D0008243064B30331A607047F9B1034A3432F2
:1027E00012680243014B34331A601CE00038024087
:1027F000FFFFF6EA103000240030002000004742BE
:10280000800E47420024F40000127A00820000206B
:10281000FFFCFF0F5C014742E01147428F4A1268FC
:1028200082438E4B1A60704739B18C4A121D126870
:1028300002438A4B1B1D1A6006E0884A121D12686B
:102840008243864B1B1D1A60704739B1834A0C3294
:1028500012680243814B0C331A6006E07F4A0C3247
:10286000126882437D4B0C331A60704739B17B4A42
:10287000103212680243794B10331A6006E0774A2F
:10288000103212688243754B10331A60704739B1A9
:10289000724A243A12680243704B243B1A6006E0E5
:1028A0006E4A243A126882436C4B243B1A6070478C
:1028B00039B16A4A203A12680243684B203B1A60D9
:1028C00006E0664A203A12688243644B203B1A6055
:1028D000704739B1614A1C3A126802435F4B1C3B96
:1028E0001A6006E05D4A1C3A126882435B4B1C3B4F
:1028F0001A60704739B1594A143A12680243574B6B
:10290000143B1A6006E0554A143A12688243534B4E
:10291000143B1A60704739B1504A103A12680243AA
:102920004E4B103B1A6006E04C4A103A1268824344
:102930004A4B103B1A60704739B1484A1C32126842
:102940000243464B1C331A6006E0444A1C321268AC
:102950008243424B1C331A60704739B13F4A2032E0
:10296000126802433D4B20331A6006E03B4A203296
:1029700012688243394B20331A60704739B1374AA5
:10298000243212680243354B24331A6006E0334A7E
:10299000243212688243314B24331A60704739B1B4
:1029A0002E4A2C32126802432C4B2C331A6006E05C
:1029B0002A4A2C3212688243284B2C331A60704703
:1029C00039B1264A303212680243244B30331A6040
:1029D00006E0224A303212688243204B30331A60BC
:1029E0007047012808D11D493C31096841F00801B0
:1029F0001A4A3C32116007E018493C31096821F05D
:102A00000801164A3C321160704739B1134A273A1F
:102A100012780243114B273B1A7006E00F4A273AFF
:102A2000127882430D4B273B1A7070470B48403099
:102A3000006840F0807009494031086070470146E5
:102A40000020064A283A12680A400AB1012000E034
:102A50000020704701492639087070473438024019
:102A600010B50446FB48844208D101218014FFF7C9
:102A700052FF0021A014FFF74EFF3CE0F6488442CD
:102A800008D101210014FFF735FF00212014FFF7C2
:102A900031FF30E0F148844208D10121C013FFF733
:102AA00029FF0021E013FFF725FF24E0EC488442D2
:102AB00008D101214014FFF72EFF00216014FFF719
:102AC0002AFF18E0E748844209D101210805FFF7F1
:102AD00022FF00214FF48010FFF71DFF0BE0E248BA
:102AE000844208D101214805FFF715FF00214FF46A
:102AF0000010FFF710FF10BD10B50022028802F48D
:102B000041520B884C8823438C882343CC88234331
:102B10000C8923434C8923438C892343CC89234349
:102B20001A430280838B4FF2FF74234083830B8A06
:102B3000038210BD2DE9F04F0025022300244FF041
:102B4000010900220026002794469046B0F81CA0F8
:102B50004FF2400B0AEA0B0AA0F81CA04FF0020A41
:102B6000A0F820A0858BD1F808A0BAF1020F01D1FE
:102B700000BF82E0B1F804A0BAF1000F02D14FF01B
:102B8000010901E04FF00209DFF8E0A2DAF800A045
:102B90000AF4000ABAF1000F09D0DFF8D0A2DAF87F
:102BA00000A02AF4000ADFF8C4B2CBF800A0DFF8D6
:102BB000BCA20AF17C0ADAF800A0CAF3881CDFF88C
:102BC000ACA20AF17C0ADAF800A0CAF30278DFF8B6
:102BD0009CA2AAF1040ADAF800A00AF03F07DFF885
:102BE0008CA2AAF1040ADAF800A00AF4800ABAF565
:102BF000800F08D1DFF878A2BAFBF7FA0AFB0CFACB
:102C0000BAFBF8F607E0DFF86CA2BAFBF7FA0AFBAA
:102C10000CFABAFBF8F6B1F806A0BAF5007F0ED1AF
:102C20004FEA162A0AEB8A0A4FEA4A0AD1F808B094
:102C3000BAFBFBFA0AF1050A1FFA8AF20FE04FEA23
:102C4000491AB6FBFAFA0AEB8A0A4FEA4A0AD1F89D
:102C500008B0BAFBFBFA0AF1050A1FFA8AF24FF034
:102C60000A0AB2FBFAF202F00104A2EB040ACAF368
:102C70004F034FF6FF7A0AEA0424022B01DBFF2BF5
:102C800001DD02230024B1F806A04AEA040A4AEA58
:102C9000030AA0F820A0B1F804A0B1F80CB04AEAE9
:102CA0000B0AB1F802B04AEA0B0AB1F800B04AEADE
:102CB0000B0A4AF4006A4AEA05058583BDE8F08FED
:102CC0000021018041808180C18001814181818119
:102CD000C1810721018270470021018041808180EC
:102CE000C1800221816000218181704721B1028869
:102CF00042F04002028004E002884FF6BF731A409F
:102D00000280704721B1828B42F48062828304E0AA
:102D1000828B4FF6FF331A408283704702884FF24E
:102D2000FF731A40028002880A4302807047B1F59F
:102D3000804F04D1028842F48042028004E002887D
:102D40004BF6FF731A40028070474FF6FF629142C4
:102D500004D0028842F48072028004E002884FF6B8
:102D6000FF631A400280704721B1828842F004025A
:102D7000828004E082884FF6FB731A40828070479D
:102D800021B1828842F01002828004E082884FF6EE
:102D9000EF731A408280704730B500220023848B85
:102DA0004FF240052C40848302240484828B0C88DB
:102DB000B4F5007F01D00C8814B94FF4807308E09B
:102DC0000C88B4F5407F03D00C88B4F5807F00D127
:102DD00000238C888D892C434D882C431C4344F45C
:102DE00000642243828330BD014688897047818117
:102DF000704721B1028842F40052028004E0028848
:102E00004DF6FF731A4002807047018841F48051EB
:102E10000180704702460020012901D0108B00E09C
:102E2000908A70470146088A70471AB183880B431D
:102E3000838002E083888B438380704730B5002411
:102E400000230C110125A540ABB2AAB185881D4312
:102E5000858014E00030014000380040003C004014
:102E60000034014000500140005401400838024045
:102E700000127A000024F40085889D43858030BDCF
:102E80000246002013890B400BB1012000E0002016
:102E90007047CA4302817047F0B502460020002403
:102EA0000023002501F00F070126BE40B4B20B112C
:102EB00001269E40B3B2968806EA0305168926408D
:102EC00016B10DB1012000E00020F0BD10B50022C8
:102ED00001F00F040123A3409AB2D343038110BD34
:102EE00010B50446FA48844208D101211020FFF7AA
:102EF00012FD00211020FFF70EFD57E0F548844237
:102F000009D101214804FFF7F5FC00214FF40030FE
:102F1000FFF7F0FC4AE0F048844209D1012188041F
:102F2000FFF7E8FC00214FF48020FFF7E3FC3DE0D1
:102F3000EA48844209D10121C804FFF7DBFC0021E3
:102F40004FF40020FFF7D6FC30E0E548844209D179
:102F500001210805FFF7CEFC00214FF48010FFF798
:102F6000C9FC23E0DF48844208D101212020FFF77B
:102F7000D2FC00212020FFF7CEFC17E0DA48844283
:102F800009D101218807FFF7B5FC00214FF08040EF
:102F9000FFF7B0FC0AE0D548844207D10121400583
:102FA000FFF7A8FC00216005FFF7A4FC10BD2DE988
:102FB000FF4705460E460024A14600BFA046B08943
:102FC00000B100BF2C8A24F44054F08804432C82C2
:102FD000AC8941F20C608443B0883189084371891F
:102FE00008430443AC81AC8A24F44074B0890443A0
:102FF000AC826846FFF70FFBB548854202D0B9485E
:10300000854202D1DDF80C9001E0DDF80890A88936
:1030100000F4004040B109EBC90000EB0910316831
:103020004900B0FBF1F707E009EBC90000EB09101C
:1030300031688900B0FBF1F76420B7FBF0F00401C0
:103040002009642101FB1078A88900F4004040B1F8
:10305000322000EBC800B0FBF1F000F007000443A1
:1030600008E0322000EB08106421B0FBF1F000F022
:103070000F0004432C81BDE8FF874FF41651016017
:1030800000218180C18001810C2141810021818149
:10309000704710B502460020108A20F470600B883B
:1030A0004C8823438C882343CC88234318431082C5
:1030B00010BD0021018041808180C180704721B115
:1030C000828942F40052828104E082894DF6FF73C6
:1030D0001A4082817047028B02F47F420283028B86
:1030E0000A430283704721B1828942F400428281FF
:1030F00003E08289C2F30E028281704721B1828A85
:1031000042F40062828204E0828A4FF2FF731A4026
:1031100082827047C1F30802828070470146888826
:10312000C0F308007047028A4FF6F0731A4002821B
:10313000028A0A430282704721B1828942F0020268
:10314000828104E082894FF6FD731A4082817047C4
:1031500082894FF2FF731A40828182890A438281F9
:103160007047028A4FF6DF731A400282028A0A43CE
:103170000282704721B1028A42F48042028204E056
:10318000028A4BF6FF731A4002827047818941F030
:1031900001018181704721B1828A42F00802828256
:1031A00004E0828A4FF6F7731A4082827047028BDE
:1031B000D2B20283028B42EA01220283704721B11C
:1031C000828A42F02002828204E0828A4FF6DF7314
:1031D0001A408282704721B1828A42F010028282B4
:1031E00004E0828A4FF6EF731A4082827047828A27
:1031F0004FF6FB731A408282828A0A4382827047AA
:1032000021B1828A42F00202828204E0828A4FF671
:10321000FD731A40828270471AB1838A0B438382FE
:1032200002E0838A8B4383827047F0B50346002413
:1032300000260025002040F66A17B94200D100BFE1
:103240001846C1F3421401F01F06012707FA06F5DC
:10325000012C01D10C3004E0022C01D1103000E02F
:1032600014301AB107682F43076002E00768AF43C4
:103270000760F0BD02460020B1F5007F00D100BF1D
:1032800013880B400BB1012000E00020704701F4CF
:103290000072B2F5007F00D100BFCA4302807047C0
:1032A00070B50246002400230025002040F66A166F
:1032B000B14200D100BFC1F3421501F01F03012646
:1032C00006FA03F3012D13D19689334017E000006D
:1032D000001001400044004000480040004C004005
:1032E000005000400014014000780040007C004085
:1032F000022D02D1168A334001E0968A33400C1227
:10330000012606FA04F41688344013B10CB10120EA
:1033100000E0002070BD10B50022002340F66A14C2
:10332000A14200D100BF0A1201249440A3B2DC43A1
:10333000048010BD7047704770477047704710B5E4
:1033400000F008F8006810BD10B5044600F002F85F
:10335000046010BD004870475C02002000487047C0
:103360005C0200207546FFF7F9FFAE46050069468E
:10337000534620F00700854618B020B5FEF776FECC
:10338000BDE820404FF000064FF000074FF0000866
:103390004FF0000B21F00701AC46ACE8C009ACE8E7
:1033A000C009ACE8C009ACE8C0098D4670470446C6
:1033B000AFF300802046FCF730FF03B401984100D2
:1033C000009850EAC12018BF04204A0D18BF40F0F1
:1033D000010040F2FF72B2EB515F08BF40F0020003
:1033E000012808BF052002B07047014621F00040C7
:1033F000C0F1FF40C00F70472DE9F04D2DED040BDB
:103400002DED0C8B96B0DDE92350259CDDF888A0CE
:1034100025F0004624F00048BAF1000F14BF012146
:10342000002101EB4502FE4953184A1093422AD36A
:10343000002814BF0123002303EB44030B44F94984
:103440008B4220D358EA00019FEDF78B6FD0DFF855
:10345000E0B35D4503D1BAF1000F05D187E0BAF1C1
:10346000000F08BF002100D0012101EB450111F53B
:10347000001F08D8002814BF0121002101EB4401DE
:1034800011F5001F0BD99DED241B9DED220B16B0ED
:10349000BDEC0C8B04B0BDE8F04D00F05DBE002724
:1034A000002DBCBFE349884521DAE3498845A8BF20
:1034B00002271CDAC3451ADCE04901EB2851142924
:1034C00008DDC1F1340220FA02F101FA02F282426F
:1034D0000DD108E058B9C1F1140228FA02F101FA3D
:1034E00002F2424503D101F00101C1F1020756EA9F
:1034F0000A011DD1002C1BDA002D18BF022F01D0AC
:10350000012F0AD00220FFF71FFF16B0BDEC0C8B75
:1035100004B0BDE8F04D00F007BE0220FFF714FF35
:1035200000F002FE51EC100B00F095FE83E01EE06F
:103530009FEDC39B9FEDC4AB002872D1BD48804571
:103540002DD105F1804010F5801008BFBAF1000FB1
:103550000DD0B34515DC002CA1BF9DED240B16B09A
:10356000BDEC0C8B04B0A8BFBDE8F08D12E0B0EE4E
:10357000480AF0EE680A16B0BDEC0C8B04B0BDE84A
:10358000F08D002C06DA9DED240B51EC100B00F0B1
:1035900062FE50E0AE48784490ED000BEBE7D84572
:1035A0004FD1002C4ADA2EB186423BD1BAF1000F3E
:1035B00044D126E0BAF1000F13D00220FFF7C4FE79
:1035C00000F0E6FD8DED020B9DED220B8DED000B65
:1035D00010EE900A039961F31E0003909DED020B1B
:1035E000C9E78DED029B9DED220B19EE901A10EEAE
:1035F000900A8DED000B61F31E0003909DED020B10
:10360000B9E78DED02AB9DED220B1AEE901A10EE8C
:10361000900A8DED000B61F31E0003909DED020BEF
:10362000A9E729E00ADA9DED220B51EC180B53ECC7
:10363000102B00F00BFF41EC100B9CE79DED220BD3
:1036400099E7864218DAB4F1804F0DD0A4F100500A
:10365000B0F1FF5010D1002D0EDB9DED220B51EC8F
:10366000100B00F0C1FDE6E79DED220B53EC102B93
:1036700051EC100B00F0AEBC9DED220B51EC100B89
:1036800000F0A6FDBAF1000FCDE90C0134D19FED99
:10369000720BDEB1A6F1E040B0F17F602CD1002DBD
:1036A00001DD002C0DDA002D01DD002C1FDB002DCB
:1036B00016DA002C14DB012F08BF9FED690B3FF4D5
:1036C0005AAFB0EE490AF0EE690A54E7022F18BF6C
:1036D000002D0CD0012F0AD1002DFFF64CAF06E0D3
:1036E000002DB8BF002C07DA012F3FF444AFB0EE35
:1036F0004A0AF0EE6A0A3EE7012000EBE57A5AEA50
:1037000007000CD05848002580457CDD57495848B3
:10371000884514DDB0420DDB002C19DB2BE00120C5
:10372000FFF712FE16B0BDEC0C8B04B0BDE8F04DF7
:1037300000F01EBDB34502DC002C09DC1BE0864214
:1037400002DA002C17DA03E05E4527DD002C12DDDB
:103750000220FFF7F9FD00F01BFD10EE901A19EEA4
:10376000900A8DED020B8DED009B61F31E0003901E
:103770009DED020BFFE60220FFF7E6FD00F018FDCD
:1037800010EE901A18EE900A8DED020B8DED008B65
:1037900061F31E0003909DED020BECE69DED220B04
:1037A00053EC182B51EC100B01F05AFA9FED320B31
:1037B000CDE90A0153EC102B9DED0A0B51EC100BD7
:1037C00001F042F89FED2E1B53EC112B01F070F924
:1037D0009DED0A1B53EC112B01F036F89FED2A1BCF
:1037E00053EC112B01F064F99DED0A0B41EC190B20
:1037F00053EC102B51EC100B01F026F853EC192B65
:1038000001F022F800E07EE09FED210B41EC1A0B65
:1038100053EC102B9DED0A0B51EC100B3CE000001B
:10382000FFFF1F00FFFF0F00000000000000F03F3F
:103830000000F03F0000F07F0000404301FCFFFF6C
:10384000000000000000F07F000000000000000009
:10385000361A000000000000000000000000008098
:10386000000000000000F0FF0000E0410000F04315
:10387000FFFFEF3F00000000000000000000D03F0D
:10388000555555555555D53F000000000000E03F07
:10389000000000604715F73F00F0D6FF41EC190B20
:1038A0009FEDFD0B51EC1A0B53EC102B00F0CCFFED
:1038B00041EC1A0B9FEDFA0B53EC102B9DED0A0B0C
:1038C00051EC100B00F0C0FF53EC1A2B01F0C8F9BB
:1038D00041EC1A0B51EC190B53EC1A2B00F0FAFCCB
:1038E0000690CDE906519DED060B53EC192B51ECDA
:1038F000100B01F0B5F953EC1A2B01F0D9F841EC9B
:10390000100B00F09FB90020B6F5801F0EDA9FED76
:10391000E60B53EC102B9DED0C0B51EC100B00F053
:1039200093FFCDE90C016FF034000E4600EB2650FA
:10393000A0F2FF38C6F31300DD4940F07F6646F081
:1039400040568842D8BF002409DDDA498142C8BF09
:10395000012404DC0024A6F5801608F10108D648ED
:10396000784400EBC4000D9690ED00BB9DED0C0B70
:1039700053EC1B2B51EC100B01F072F99DED0C0B6D
:1039800041EC1A0B53EC1B2B51EC100B00F0A2FC7A
:1039900041EC100B51EC180B53EC102B00F056FDC2
:1039A00041EC1C0B51EC1A0B53EC1C2B00F04CFFA0
:1039B00041EC190BC1488DED109B7844109590EDAA
:1039C000000B4FF0005040EA660000EB84408DEDA4
:1039D0000A0B00F500200B909DED0A0B53EC1B2BFE
:1039E00051EC100B01F03CF99DED0C1B53EC112B2D
:1039F00001F05EF841EC100B53EC102B9DED100B19
:103A000051EC100B00F020FF9DED0A0B41EC1B0B5D
:103A100053EC102B9DED100B51EC100B00F014FF2C
:103A200053EC1A2B01F044F853EC1B2B01F018F95E
:103A300053EC1C2B00F008FF41EC1B0B53EC192B33
:103A400051EC190B00F000FF41EC1A0B9C480621C9
:103A5000B0EE4A0AF0EE6A0A784400F0E9FAB0EEF5
:103A600040CAF0EE60CA53EC1A2B51EC1A0B00F06E
:103A7000EBFE53EC1C2B00F0E7FE9DED100B41EC30
:103A80001A0B53EC192B51EC100B00F023FC53ECE8
:103A90001B2B00F0D9FE53EC1A2B00F01BFC9DED04
:103AA000100B41EC1A0B53EC102B51EC100B00F0E7
:103AB000CBFE41EC1C0B9FED84DB53EC1D2B00F087
:103AC00009FC53EC1A2B00F005FC0A90CDE90A51D1
:103AD0009DED0A0B53EC1D2B51EC100B01F0C0F8BF
:103AE00053EC1C2B01F0BCF853EC1A2B00F0E0FF58
:103AF0009DED0A0B41EC1C0B53EC102B9DED100BB4
:103B000051EC100B00F0A0FE41EC1A0B53EC192BFA
:103B100051EC1C0B00F098FE9DED0A0B41EC190BCB
:103B200053EC102B51EC1B0B00F08EFE53EC192BB9
:103B300000F0D0FB41EC190B51EC1A0B53EC192B94
:103B400000F0C8FB1090CDE910519DED100B53EC27
:103B50001A2B51EC100B01F083F853EC192B00F0E9
:103B6000A7FF41EC190B9FED5A0B53EC102B9DED69
:103B7000100B51EC100B00F067FE41EC1A0B9FED9F
:103B8000560B51EC190B53EC102B00F05DFE41EC81
:103B9000190B9FED530B53EC102B9DED100B51ECBB
:103BA000100B00F051FE53EC192B00F093FB41EC8D
:103BB000100B4D48784400EBC40090ED001B51EC15
:103BC000100B53EC112B00F085FB41EC190B404618
:103BD00000F094FDCDE90A0153EC192B51EC1A0BBE
:103BE00000F078FB41EC100B4048784400EBC40037
:103BF00090ED00BB51EC100B53EC1B2B00F06AFB5B
:103C00009DED0A1B53EC112B00F064FB0690CDE9EF
:103C100006519DED0A0B53EC102B9DED060B51EC5C
:103C2000100B01F01DF853EC1B2B01F019F853ECAD
:103C30001A2B01F015F853EC192B00F039FF41EC69
:103C4000100B00BF781EB0EE48AAF0EE68AA5AEA40
:103C5000000008BF9FED268B9DED241B53EC102B1D
:103C60008DED001B00959DED240B51EC100B00F029
:103C7000EBFD9DED000B41EC190B53EC102B9DED72
:103C8000240B51EC100B00F0EBFF9DED061B53ECE9
:103C9000112B00F0D9FD2FE0FE822B654715F73F71
:103CA00044DF5DF80BAE543E0000000000004043CE
:103CB0008E9803007AB60B00E4150000121600007F
:103CC0001C1500000000000000000000000008407B
:103CD000000000E009C7EE3FFD033ADC09C7EE3FF4
:103CE000F5015B14E02F3EBEB01300006A13000024
:103CF000000000000000F0BF53EC192B00F0EAFABE
:103D00009DED060B41EC190B53EC102B9DED000BB8
:103D100051EC100B00F098FDCDE910019DED100B5A
:103D200051EC190B53EC102B00F0D4FACDE9020141
:103D30000C46AB498C422FDB611A084318D19DED2C
:103D4000100B53EC102B9DED020B51EC100B00F0FF
:103D500087FF41EC1B0B9FEDA40B51EC190B53ECAF
:103D6000102B00F0B7FA53EC1B2B00F06BFE2DD29A
:103D70000220FFF7E9FA00F00BFA10EE901A18EEA5
:103D8000900A8DED020B8DED008B61F31E00039008
:103D90009DED020BFFF7EFBB954A24F000419142E5
:103DA00014D39449214408437FF4E5AC9DED100BF6
:103DB00053EC102B9DED020B51EC100B00F050FF5B
:103DC00053EC192B00F03EFE7FF6D5AC24F00040FA
:103DD00089498A4A002601EB205182422BDA481C8D
:103DE0004FF4801121FA00F02044854AC0F30A51B3
:103DF0007A44A1F2FF3192ED000B824A8DED0A0B5D
:103E0000CA4020EA0202C0F3130040F48010C1F15E
:103E1000140120FA01F60B92002CB8BF76429DEDFA
:103E20000A0B53EC102B9DED100B51EC100B00F016
:103E300017FFCDE910019DED100B51EC190B53EC60
:103E4000102B00F047FA9FED700B0A90CDE90A5154
:103E500053EC102B9DED0A0B51EC100B00F0F4FC11
:103E600041EC1B0B9FED6A0B53EC102B9DED0A0BE5
:103E700051EC100B00F0E8FC9DED100B41EC1C0B1D
:103E800053EC102B9DED0A0B51EC100B00F0E8FEEB
:103E900053EC192B00F00CFE9FED5F1B53EC112B24
:103EA00000F0D2FC53EC1C2B00F014FA41EC190B7F
:103EB00051EC1B0B53EC192B00F00CFACDE902016D
:103EC0009DED020B53EC1B2B51EC100B00F0C8FEC8
:103ED00053EC192B00F0ECFD9DED020B41EC190B9E
:103EE00053EC102B51EC100B00F0AEFCCDE90A01A5
:103EF0004B489DED0A0B0521784400F099F89DEDA3
:103F00000A1B51EC100B53EC112B00F09DFC9DEDA6
:103F1000021B53EC112B00F0CBFDCDE906019DED0A
:103F2000020B53EC192B51EC100B00F08DFC53ECF1
:103F3000192B00F0CFF99FED3C0B41EC190B53EC22
:103F4000102B9DED060B51EC100B00F089FE9DED42
:103F5000060B41EC1B0B53EC102B9DED020B51ECAF
:103F6000100B00F071FC53EC1B2B00F06FFA53ECBC
:103F7000192B00F075FE9DED021B53EC112B00F088
:103F80006FFE53EC1A2B00F093FDCDE9020101EB1B
:103F9000065001150029C8BF039015DC9DED020BEA
:103FA000324651EC100B00F081FFFFF706FA0428AF
:103FB00008BF00F0FDF832469DED020B51EC100BEE
:103FC00000F074FFCDE902019DED020B51EC180BDE
:103FD00053EC102B00F038FCFFF72DBB0000000065
:103FE0000000904000000000FE822B654715973CC2
:103FF00000CC904000346F3F01FCFFFF0000E03F29
:10400000DC110000FFFF0F0000000000432EE63F20
:10401000396CA80C615C20BEEF39FAFE422EE63FF7
:10402000AC10000000000000000000000000004094
:1040300070B504462DED028B4D1E00EBC500B0EEB1
:10404000408AF0EE608A90ED000B35F0060017D044
:1040500053EC182B51EC100B00F0F6FB41EC100B5D
:104060006D1E04EBC50090ED001B51EC100B53ECE2
:10407000112B00F02FF941EC100B35F00600E7D1C1
:10408000022D36D0042D1CD0062D1CBFBDEC028B9A
:1040900070BD53EC182B51EC100B00F0D5FB94EDD8
:1040A0000A1B53EC112B00F015F953EC182B00F000
:1040B000CBFB94ED081B53EC112B00F00BF941ECFA
:1040C000100B53EC182B51EC100B00F0BDFB94EDD2
:1040D000061B53EC112B00F0FDF853EC182B00F0ED
:1040E000B3FB94ED040B53EC102B00F0F3F841EC10
:1040F000100B53EC182B51EC100B00F0A5FB94EDBA
:10410000021B53EC112B00F0E5F853EC182B00F0D8
:104110009BFB94ED001B53EC112B00F0DBF8BDEC86
:10412000028B41EC100B70BD9FED070B10B553ECEB
:10413000102B9FED070B51EC100B00F087F941ECB1
:10414000100B10BD00000000000000000000000087
:10415000000000000000F03F10B553EC112B51ECB3
:10416000100B00F0B7F841EC100B10BD0000000080
:104170009FED050B10B553EC102B51EC100B00F01C
:1041800065F941EC100B10BD0000000000000000BC
:104190009FED050B10B553EC102B51EC100B00F0FC
:1041A00053FB41EC100B10BD00000000000000703C
:1041B0009FED050B10B553EC102B51EC100B00F0DC
:1041C00043FB41EC100B10BD00000000000000108C
:1041D00082B0CDE9000121F0004001909DED000B7F
:1041E00002B051EC100B704700B52DED048B83B07D
:1041F00041EC190B00F068FC41EC180B18EE100AAA
:1042000018EE901A8DED008B002818BF012008438E
:1042100020F00040C0F17F6000F1E040C00F14D0FA
:1042200019EE101A19EE900A8DED009B002918BFA7
:104230000121084320F00040C0F17F6000F1E04020
:10424000C00F04BF0120FFF77FF851EC180B03B03B
:10425000BDEC048B00BD81F00041704780F0004050
:10426000704721F00041704720F000407047000087
:1042700021F00042A2F16052B2F5801F01F000432C
:1042800028BFD2F17F6C0BD95FEA001C43EAC2025F
:1042900042EB507018BF704728BF20F001007047F4
:1042A000B2F5801FBCBF184670474FEA410C1CF5A1
:1042B000001F02D2084600F0C2BD70B500F06EFBD0
:1042C00000000089FFF7F6BF4FF00040A0F5800026
:1042D0007047000010B591EA030F48BF83F0004318
:1042E00000F1C684841A71EB030C05D2121943EB5A
:1042F0000C03001B61EB0C01DFF824E14FEA1154C1
:10430000A4EB135C1EEA430F18BF9EEA445F73D010
:1043100023EA0E03DCF1200E21EA045143F480135A
:1043200032D322FA0CFE10EB0E0023FA0CFE41EB06
:104330000E01CCF1200E03FA0EFE10EB0E0051F12F
:104340000001B1F5801FCCF1200E32D201EB0451F7
:1043500012FA0EF2BDE8104058BF7047401C38BF3B
:104360005FEA420218BF7047002814BF20F0010026
:1043700041F100014FEA410313F5001F38BF7047B8
:10438000A1F1C04100F058BB012A43EB0302ACF19C
:10439000200CDCF11F0E32BF4FF0000E23FA0CF39D
:1043A00010EB030041EB0451B4EB115FD0D0A1EB53
:1043B000045101F5801149085FEA300001EB045116
:1043C0000ED350F1000038BF12FA0EFE08D1BDE83E
:1043D0001040C9E7401C38BF5FEA4202CAD1C3E7B8
:1043E000BDE810404FEA410313F5001F38BF704786
:1043F000A1F1C04100F020BB9EEA445F08D011EA61
:104400005E0FBDE8104004BF01F00041002070477E
:10441000BDE8104070B500F0C1FA00BF64FBBE3EBD
:104420000000E0FF02494FF0000000F00DBD00BFAA
:104430000000F87F491058BFC1F140415B1058BFE0
:10444000C3F140438B42EFF3008070472DE9C04138
:1044500030B4DFF8A0C23CEA111418BF3CEA1314D0
:1044600000F0EC8081EA03051CEA111444EAD574DB
:1044700018BF1CEA131500F0C780A4EB05044FF029
:10448000004545EAC12145EAC32341EA505143EAC8
:10449000525304F17F74994204F500344FEAC0206E
:1044A0004FEAC22208BF904200F09C804FEA136599
:1044B0000FF24016765D4FEA134506FB05F7C7F18C
:1044C000807706FB07F74FEAD737A7FB03687642EA
:1044D000C8F58038A7FB06CE38BFA8F1010807FB56
:1044E00008E64FF0000EA6FB028CE6FB03CEDCF1E3
:1044F000000CCEF1004E38BFAEF1010EA6FB0C58F9
:104500004FF000074FF00005E6FB0E87A1FB08C641
:10451000A0FB07CE16EB0E0645F10005E1FB076593
:1045200015F1E04E7EBFA4F580345FEA46066D418A
:1045300016F1800745F100054FEA17274FEA066696
:1045400047EA0567A6F1DE46B6F1805F4FEA15251A
:104550001FD9384624F0010C05EBC471BCF1FE6F85
:1045600001EB0C1102D8F0BCBDE8008124425CBF15
:1045700001F5801E9EEAC47F02D4F0BCBDE8008134
:10458000244238D4F0BCA1F1C041BDE8004100F0A4
:1045900053BA4FEAD22242EA43524FEAD323A7FB4F
:1045A00002864FEAD02040EA415007FB03661EEA2C
:1045B0000E0F4FEAD12105FB026658BFA6EB00564D
:1045C000B6EB00564FEA520E4EEAC37E18EB0E0EC3
:1045D00056EB530EBDD518EB02085E417F1C55F11A
:1045E0000005B6E74FF480154FF000074FF00006C6
:1045F0004FF00008ADE7F0BC4FF0000001F1C04102
:1046000001F00041BDE8008111EA0C1F0CEA13150E
:1046100000D00CE013EA0C1F00F025804FF00000E2
:10462000F0BC81EA030101F00041BDE80081F0BC6B
:10463000BDE8004181EA030100F0FEB9F0BCBDE82D
:10464000004170B500F0AAF9097EFC3E00F007B801
:1046500081EA03014FF0000001F00041704781EA58
:10466000030100F0E9B9F0BCBDE800414FF00000E3
:1046700021497047FFFDFBF9F7F5F4F2F0EEEDEBA1
:10468000E9E8E6E4E3E1E0DEDDDBDAD8D7D5D4D350
:10469000D1D0CFCDCCCBCAC8C7C6C5C4C2C1C0BF9C
:1046A000BEBDBCBBBAB9B8B7B6B5B4B3B2B1B0AFA2
:1046B000AEADACABAAA9A8A8A7A6A5A4A3A3A2A186
:1046C000A09F9F9E9D9C9C9B9A9999989797969541
:1046D00095949393929191908F8F8E8E8D8C8C8BDD
:1046E0008B8A898988888787868585848483838265
:1046F000828181800000FF070000F87F10F00042F7
:1047000048BF4042B0FA80F310FA03F10AD0C3F177
:104710001D0303F580634FEA415002EB035202EBA5
:10472000D12170474FF00000704700007FEAE1722E
:1047300002D1101A62EB0101B1FA81F30B3B24D3D1
:10474000994012D1B0FA80F310FA03F108BF704714
:10475000C3F11D0303F5406303EBC2234FEAD122EB
:104760004FEA415002EB03517047C3F1200C20FA8D
:104770000CFC9840C3F1320303F5406303EBC22302
:1047800041EA0C0101EB0351704710B5C3F1320C43
:10479000C3F10004C4F1200E0CF5406C0CEBC222F6
:1047A00001FA0EFC21FA04F100FA0EF3E040BDE834
:1047B000104040EA0C0001EB025138BF7047401C2A
:1047C00041F100015B0008BF20F0010070470000CC
:1047D00051EA030C17D41CF5801F58BFBCF5801F8D
:1047E00000F10680994218BF704708BF9042704799
:1047F00007D711F5801F58BF13F5801F19D49942B0
:104800007047894270471CF5801F08D5BCF5801F92
:10481000F7D58B4218BF704708BF824270474FF4EC
:10482000001C1CEB410F38BF1CEB430F01D28B4225
:10483000704770B500F0B2F8922449004FF0005173
:104840004FF08053FFF7F6BDDFF848C170B51CEAA2
:10485000111E1EBF1CEA13159EEA0C0F95EA0C0FE1
:1048600000F06F8081EA030423EA4C134EEAD47E01
:1048700021EA4C1141F4801143F48013AE44A1FBB2
:10488000024CA0FB0365AEF17F7E361955EB0C059B
:10489000A1FB034C4CF10003A0FB021C16EB0C0621
:1048A000654153F10003094218BF46F0010613F4B5
:1048B000007F0BD14FEA03314FEA0530340341EA60
:1048C000155140EA16506FF003020AE04FEAC32187
:1048D0004FEAC520F40241EA555140EA56506FF0C4
:1048E000020202EB2E4201EB025585EACE710AD09C
:1048F0005FEA440C18BF24F0004450F1000041F17D
:10490000000120EAD47040F2FE7C624500D270BD06
:10491000A84214BF4FF080444FF04044002E08BF1F
:104920000024BEF1806FA8BFA1F1C041BDE8704076
:1049300080F282804FF0000001F1C04101F000419F
:1049400070479EEA0C0F0CEA131518BF95EA0C0F7E
:1049500006D04FF0000081EA030E0EF0004170BD5A
:1049600000F01CF88900013E00F007B800F009B81B
:104970004FEA430C5FEA5C5C08D081EA030100F077
:104980005BB84FEA410C5FEA5C5CF6D14FF0000087
:10499000014970470000FF070000F87F0EF1020E8A
:1049A0002EF0030E5EF8046B364205D4012A43EB69
:1049B000030515F5001F12D8012841EB010C1CF569
:1049C000001F0CD80ED14FEAD17C15F5001F0CEB5F
:1049D0004C0C0CF1020C08BF4CEBD37C04E04FF004
:1049E000080C01E04FEAD37C0CEB4C0526FA05F6E7
:1049F00006F00706B6F1040C06D20EEB860CBDE8F5
:104A000070404CF0010C6047DFE80CF0090B02022B
:104A10004FF000414FF00000A1F5002170BD194694
:104A20001046012851EB010418BFD4F5001484BFCF
:104A3000002001F0004170BD0808A0F500114FEA08
:104A40003101704753EA010C17D41CF5801F58BF81
:104A5000BCF5801F00F106808B4218BF704708BF6D
:104A60008242704707D713F5801F58BF11F5801F8A
:104A700019D48B4270479B4270471CF5801F08D5A4
:104A8000BCF5801FF7D5994218BF704708BF904208
:104A900070474FF4001C1CEB430F38BF1CEB410F59
:104AA00001D2994270470FB40CBC03BCFFF7C1BEE2
:104AB00091EA030F10B581F000413FF513AC83F08C
:104AC000004300F0D5B800002DE9F04101F5801C4D
:104AD000BCF5001FC0F2A9804FEA115C21EA0C511D
:104AE0000CF1FD0C41F480115FEA5C0C0CF5C07C0C
:104AF00001D34000494130A4890241EA9051870224
:104B00008E0E0A0CA45D04FB04F602FB06F6C6F149
:104B10004046A4FB0662F60D46EA422606FB06F472
:104B2000A4FB01235242C3F1404338BF5B1EA6FBE6
:104B300002420024E6FB0324D20B42EA4446A6FBD1
:104B40000623A1FB02E2A3FB07E4E3FB614264420C
:104B5000C2F1404E38BFAEF1010EA6FB04234FF068
:104B60000002E6FB0E32A2FB03463400E2FB626465
:104B7000A1FB06E6A4FB07E8E4FB61687642C8F106
:104B8000405838BFA8F10108A2FB06E4A3FB08E5E2
:104B9000E2FB6854A1FB05E6A7FB04E8E1FB6486A1
:104BA00018F1200556F10006A809A8F11B08B10963
:104BB00008F03F08B8F10A0F40EA86601CD901EB03
:104BC0000C51BDE8F08100BFFCF5EEE8E2DDD8D382
:104BD000CFCBC7C3C0BDB9B6B4B1AEACA9A7A5A36E
:104BE000A19F9D9B9A9896959392908F8D8C8B897F
:104BF0008887868584838281A0FB006800FB01F2A0
:104C000008EB4208B8EB872807D5341858EB0104A5
:104C1000D5D5401C51F10001D1E7341A78EB0104DD
:104C2000CDD4401E71F10001C9E75FEA4C0C5FEA88
:104C30009C5C0DD105D34FF0000001F00041BDE8B0
:104C4000F081BDE8F04170B5FFF7A8FE6DDBFFBE57
:104C5000BDE8F0414FF00000004970470000F87FC8
:104C600010B591EA030F48BF83F000433FF53AAB1C
:104C7000841A71EB030C07D212198CF0004C43EB31
:104C80000C03001B61EB0C01DFF8A4E14FEA1154A7
:104C9000A4EB135C1EEA430F18BF9EEA445F00F0CA
:104CA000B08023EA6E03524221EA0451C3EB6E0343
:104CB00038BF5B1EDCF1200E25D322FA0CFE10EB70
:104CC0000E0043FA0CFE41EB0E01CCF1200E03FA6C
:104CD0000EFE10EB0E0051F10001CCF1200E29D494
:104CE00012FA0EF201EB0451BDE8104058BF7047B4
:104CF000401C1CBFB2F1004F704700280CBF491C7C
:104D000020F00100704712EB020E43EB030218BFC4
:104D10004FF0010E4EEA4202ACF1200CDCF11E0E07
:104D200054D943FA0CFE10EB0E0051F1FF31CCF1D7
:104D30001E0ED5D50EF1010E12FA0EFE404141EBCA
:104D4000010101EB445C5FEA5C5C10D910EBDE70A2
:104D500001EB045138BFBEF1004FBDE8104018BF51
:104D6000704700280CBF491C20F00100704730D26A
:104D70004FEAD42C11F5001124F400641BD0B1FAD1
:104D800081F20B3AA41AA41ED2F12003914030FA0A
:104D900003F31943904001EBCC71002C01EB04515B
:104DA000BDE81040A8BF704701F1C0414FF00000BE
:104DB00001F000417047B0FA80F310FA03F100D11E
:104DC00010BDE41A173C4805C90AE4E701EB045199
:104DD00010BD491001EB0451BDE810404FEA30000E
:104DE00002E04FF0000170474A0008BF0042F8D0CF
:104DF000B2F5001F28BF704701F000414FF00000DE
:104E000070479EEA445F07D011EA5E0FBDE810408C
:104E100004BF002100207047BDE8104070B5FFF7C7
:104E2000BDFD00BF40DFF63E83F0004110467047F5
:104E30000000E0FF4FF04070E1EE100A7047FF21E4
:104E400041EAD050C00570470CF00F03092B08BF92
:104E5000082000F059800A2B0BD0082B18BF704790
:104E600008BF1CF0400F0AD04FF000004FF00001C7
:104E700070471CF0400F18BF4FF0004070471CF007
:104E8000100F08D020F0704300F07F4242EAD301B7
:104E90004FEA4370704700F0604021F07F4242EAE1
:104EA000000201F07F4040EA727070474FF0FF0C43
:104EB0004CF4E06C1CEA11531CBF9CEA030C9445B3
:104EC000C2BFDA4201EB02517047002B0DD0BCF19A
:104ED000000F0FD0002A01F00041A4BF41F0E041D3
:104EE00041F07F614FF00000704701F000414FF04A
:104EF0000000704750EA01334FF09B0C18BF4CF094
:104F0000806C7FF48FAA70471CF4801F11D01CF4B2
:104F1000E02F03D06FEACC31490070474FF040508A
:104F2000EFF3008222F0704242EA000282F300882E
:104F300070474FF000007047FFFFFFFFFFFFFFFFCC
:104F4000FFFF000000000000000000000000F03F34
:104F5000000000000000F83F00000000000000001A
:104F60000000004003B8E23F000000000000000025
:104F700006D0CF43EBFD4C3E033333333333E33FB3
:104F8000FFAB6FDBB66DDB3F4D268F515555D53FDF
:104F900001411DA96074D13F65DBC9934A86CD3FAD
:104FA000EF4E454A287ECA3F3E5555555555C53F9B
:104FB00093BDBE166CC166BF2CDE25AF6A56113F8D
:104FC000F16BD2C541BDBBBED0A4BE726937663E8F
:104FD0000000000000000000F84F00080000002062
:104FE00094000000C40100088C50000894000020C8
:104FF0002C080000E0010008000000000000000094
:1050000000000000007A030A000000000000000019
:105010000102030406070809000000000000000068
:105020000000003F00000000000000000000000041
:10503000000000000000000000000000000100006F
:10504000000000000000000000000000010000005F
:10505000000000000000000001000000000000004F
:1050600000000000000010FFE1FF5D0000000000F4
:10507000000000000000000000000000000001022D
:0C508000030401020304060708090000F5
:040000050800018965
:00000001FF
